:020000040800F2
:1000000020050020050100080D0100080F0100086F
:10001000110100081301000815010008000000008C
:1000200000000000000000000000000017010008B0
:1000300019010008000000001B0100081D01000854
:100040001F0100081F0100081F0100081F01000810
:100050001F0100081F0100081F0100081F01000800
:100060001F0100081F0100081F0100081F010008F0
:100070001F0100081F0100081F0100081F010008E0
:100080001F0100081F0100081F0100081F010008D0
:100090001F0100081F0100081F0100081F010008C0
:1000A0001F0100081F0100081F0100081F010008B0
:1000B0001F0100081F0100081F0100081F010008A0
:1000C0001F0100081F0100081F0100081F01000890
:1000D0001F010008050700081F0100081F01000894
:1000E0001F0100081F0100081F010008DFF810D0E1
:1000F00000F01AF800480047E9090008AFF3008053
:10010000200500200648804706480047FEE7FEE736
:10011000FEE7FEE7FEE7FEE7FEE7FEE7FEE7FEE7B7
:10012000A5060008ED000008064C074D06E0E06853
:1001300040F0010394E8070098471034AC42F6D32E
:10014000FFF7D8FFE40A0008040B00082DE9F0418E
:10015000024600250026002000230024002791F8F5
:1001600003C00CF00F0591F803C00CF0100CBCF1AB
:10017000000F03D091F802C04CEA050591F800C0C9
:10018000BCF1000F31D0146800202BE04FF0010CBF
:100190000CFA00F3B1F800C00CEA03069E4220D12D
:1001A00083004FF00F0C0CFA03F7BC4305FA03FC75
:1001B0004CEA040491F803C0BCF1280F06D14FF0BB
:1001C000010C0CFA00FCC2F814C00AE091F803C05C
:1001D000BCF1480F05D14FF0010C0CFA00FCC2F83D
:1001E00010C0401C0828D1D31460B1F800C0BCF185
:1001F000FF0F34DD546800202EE000F1080C4FF0B2
:10020000010808FA0CF3B1F800C00CEA03069E429C
:1002100021D183004FF00F0C0CFA03F7BC4305FA11
:1002200003FC4CEA040491F803C0BCF1280F05D18B
:1002300000F1080C08FA0CF8C2F8148091F803C019
:10024000BCF1480F07D100F1080C4FF0010808FA83
:100250000CF8C2F81080401C0828CED35460BDE8CA
:10026000F0810246002093680B400BB1012000E0B2
:100270000020704741617047016170474CF6CC40E7
:1002800001490860704700000030004070B5054625
:100290000C4645F2555000F01FF8284600F010F8C3
:1002A000204600F013F800F003F8FFF7E7FF70BDF9
:1002B0004AF6AA200149086070470000003000405B
:1002C00001494860704700000030004001498860E3
:1002D000704700000030004001490860704700008E
:1002E0000030004008B50121042000F0EDF808209E
:1002F000ADF8000048208DF8030003208DF80200BF
:1003000069460F48FFF722FF2020ADF80000482083
:100310008DF8030003208DF8020069460848FFF7B6
:1003200015FF1020ADF8000048208DF803000320D1
:100330008DF8020069460248FFF708FF08BD00007B
:100340000008014010B500242048007838B3082187
:100350001F48FFF786FF48B120211D48FFF781FFA6
:1003600020B110211A48FFF77CFFC0B90A2000F025
:1003700009FB00201549087008211548FFF771FF97
:1003800000B9012420211248FFF76BFF00B90324B4
:1003900010210F48FFF765FFA8B9022413E00821D8
:1003A0000B48FFF75EFF01280DD120210848FFF719
:1003B00058FF012807D110210548FFF752FF0128F7
:1003C00001D102490870204610BD00001400002031
:1003D0000008014008B50121042000F075F8012152
:1003E000082000F071F84020ADF8000010208DF8D2
:1003F000030003208DF8020069461548FFF7A6FEAA
:100400008020ADF8000010208DF8030003208DF847
:10041000020069460E48FFF799FE0120ADF8000082
:1004200010208DF8030003208DF80200694609486A
:10043000FFF78CFE40210648FFF71CFF802104488F
:10044000FFF718FF01210348FFF714FF08BD000064
:1004500000080140000C014070B5002100230F226C
:10046000C47804B3154C246804F4E064C4F5E06473
:10047000210AC1F10403CA40447804FA03F18478E4
:100480001440214309010E4C0678A155047804F06C
:100490001F050124AC4005786D11AD0005F1E02584
:1004A000C5F8004109E0047804F01F050124AC40C0
:1004B000044D0678761145F8264070BD0CED00E03D
:1004C00000E400E080E100E029B1064A92690243BD
:1004D000044B9A6104E0034A92698243014B9A619A
:1004E000704700000010024030B5002100220024B7
:1004F00000232D4D6D6805F00C0121B1042905D0B4
:10050000082923D105E0294D056022E0274D05602B
:100510001FE0254D6D6805F47012234D6D6805F4DC
:100520008034022505EB92421CB9214D55430560EC
:100530000BE01D4D6D6805F400351DB11C4D554394
:10054000056002E0194D5543056002E0174D056056
:1005500000BF00BF144D6D6805F0F0010909154D8D
:100560006B5C0568DD4045600F4D6D6805F4E0612A
:10057000090A104D6B5C4568DD4085600A4D6D6869
:1005800005F46051C90A0B4D6B5C4568DD40C560E0
:10059000054D6D6805F44041890B074D6B5CC568DE
:1005A000B5FBF3F5056130BD0010024000127A0082
:1005B00000093D00000000201000002010B500F0F0
:1005C00001F810BD0CB50020019000903348006880
:1005D00040F480303149086000BF3048006800F4C2
:1005E000003000900198401C0190009818B90198C3
:1005F000B0F5A06FF1D12948006800F4003010B1C7
:100600000120009001E0002000900098012843D1D3
:100610002348006840F0100021490860084600683F
:1006200020F0030008600846006840F002000860FF
:100630001A484068194948600846406848600846BA
:10064000406840F4806048600846406820F47C10B0
:1006500048600846406840F4E81048600846006872
:1006600040F08070086000BF0C48006800F0007027
:100670000028F9D00948406820F003000749486085
:100680000846406840F00200486000BF03484068E8
:1006900000F00C000828F9D10CBD00000010024049
:1006A0000020024010B51348006840F001001149D5
:1006B000086008464068104908400E4948600846EE
:1006C00000680E4908400B4908600846006820F49D
:1006D000802008600846406820F4FE0048604FF41F
:1006E0001F008860FFF76AFF4FF000600449086050
:1006F00010BD0000001002400000FFF8FFFFF6FEF2
:1007000008ED00E010B540F22551204800F050F807
:1007100000283AD01D4800F007F9C4B21C480088F0
:1007200000F40040F8B91A48008800F4804090B105
:100730000A2C03D000201649088026E014480088BF
:1007400040F400401249088000200988C1F30D01DF
:10075000104A505419E00D2C06D10D48008840F481
:1007600080400B49088010E009480088C0F30D0064
:1007700008490C5406480088401C05490880084672
:100780000088FF2801DD0020088010BD00380140EE
:100790001C0000202000002021B1828942F4005278
:1007A000828104E082894DF6FF731A40828170478E
:1007B00070B50246002400230025002040F66A168A
:1007C000B14200D100BFC1F3421501F01F03012661
:1007D00006FA03F3012D02D19689334006E0022D7B
:1007E00002D1168A334001E0968A33400C1201266A
:1007F00006FA04F41688344013B10CB1012000E06D
:10080000002070BDF0B5034600240026002500201E
:1008100040F66A17B94200D100BF1846C1F342142E
:1008200001F01F06012707FA06F5012C01D10C3053
:1008300004E0022C01D1103000E014301AB1076836
:100840002F43076002E00768AF430760F0BD000078
:100850002DE9F04786B005460E460024A24600BFAB
:10086000A1460027B08900B100BF2F462C8A4CF664
:10087000FF700440F08804432C82AC894EF6F310DC
:100880000440B08831890843718908430443AC812E
:10089000AC8A4FF6FF400440B0890443AC8201A803
:1008A000FFF722FE1F48874202D1DDF810A001E0C9
:1008B000DDF80CA0A88900F4004040B10AEBCA00A2
:1008C00000EB0A1031684900B0FBF1F807E00AEBD1
:1008D000CA0000EB0A1031688900B0FBF1F864200F
:1008E000B8FBF0F004012009642101FB1089A889FC
:1008F00000F4004040B1322000EBC900B0FBF1F041
:1009000000F00700044308E0322000EB09106421E6
:10091000B0FBF1F000F00F0004432C8106B0BDE8FD
:10092000F08700000038014001468888C0F30800C5
:1009300070470000014A024900F013B8CD090008D1
:100940001800002002E008C8121F08C1002AFAD1CE
:1009500070477047002001E001C1121F002AFBD13F
:1009600070472DE9F04116460F460446002503E086
:100970003946B047641C6D1C20780028F8D1284601
:10098000BDE8F081014642F228324A434FF0E023AD
:100990005A6100229A611A46126942F001021A61F4
:1009A00000BF4FF0E022106900F001021AB100F41C
:1009B0008032002AF5D04FF0E022126922F00102C5
:1009C0004FF0E0231A6100229A61704700BF054A88
:1009D000128802F04002002AF9D0C2B2014B1B1D5E
:1009E0001A807047003801404FF4E13000F02AF8D7
:1009F000FFF7F0FCFFF776FCC820FFF7C3FF40F2DB
:100A000071210420FFF742FC40210948FFF734FC24
:100A100008A0FFF78FFF09E0FFF794FC0446012CC4
:100A200004D1FFF745FC05A0FFF784FFF4E70000C1
:100A3000000801404E6F210D0A0000005965732126
:100A40000D0A000010B586B00446012144F20400EE
:100A5000FFF73AFD4FF40070ADF8140003208DF855
:100A6000160018208DF8170005A91C48FFF76EFB2B
:100A70004FF48060ADF8140004208DF8170005A92C
:100A80001648FFF763FB25208DF8000003208DF842
:100A900001008DF8020001208DF803006846FFF781
:100AA000DBFC01940020ADF80800ADF80A00ADF8B9
:100AB0000C00ADF810000C20ADF80E0001A908489C
:100AC000FFF7C6FE012240F225510548FFF79AFEC6
:100AD00001210348FFF760FE06B010BD0008014089
:100AE00000380140040B0008000000202000000036
:100AF00044090008240B0008200000200005000025
:100B0000540900080000000001020304010203046C
:100B100006070809020406080100000000000000A2
:040B200000000000D1
:04000005080000ED02
:00000001FF
