:020000040800F2
:1000000000040020050100080D0100080F01000890
:10001000110100081301000815010008000000008C
:1000200000000000000000000000000017010008B0
:1000300019010008000000001B0100081D01000854
:10004000590500081F0100081F0100081F010008D2
:100050001F0100081F0100081F0100081F01000800
:100060001F0100081F0100081F0100081F010008F0
:100070001F0100081F0100081F0100081F010008E0
:100080001F0100081F0100081F0100081F010008D0
:100090001F0100081F0100081F0100081F010008C0
:1000A0001F0100081F0100081F0100081F010008B0
:1000B0001F0100081F0100081F0100081F010008A0
:1000C0001F0100081F0100081F0100081F01000890
:1000D0001F0100081F0100081F0100081F01000880
:1000E0001F0100081F0100081F010008DFF810D0E1
:1000F00000F01AF80048004769060008AFF30080D6
:10010000000400200648804706480047FEE7FEE757
:10011000FEE7FEE7FEE7FEE7FEE7FEE7FEE7FEE7B7
:10012000D1040008ED000008064C074D06E0E06829
:1001300040F0010394E8070098471034AC42F6D32E
:10014000FFF7D8FF98060008A80600082DE9F0413F
:10015000024600250026002000230024002791F8F5
:1001600003C00CF00F0591F803C00CF0100CBCF1AB
:10017000000F03D091F802C04CEA050591F800C0C9
:10018000BCF1000F31D0146800202BE04FF0010CBF
:100190000CFA00F3B1F800C00CEA03069E4220D12D
:1001A00083004FF00F0C0CFA03F7BC4305FA03FC75
:1001B0004CEA040491F803C0BCF1280F06D14FF0BB
:1001C000010C0CFA00FCC2F814C00AE091F803C05C
:1001D000BCF1480F05D14FF0010C0CFA00FCC2F83D
:1001E00010C0401C0828D1D31460B1F800C0BCF185
:1001F000FF0F34DD546800202EE000F1080C4FF0B2
:10020000010808FA0CF3B1F800C00CEA03069E429C
:1002100021D183004FF00F0C0CFA03F7BC4305FA11
:1002200003FC4CEA040491F803C0BCF1280F05D18B
:1002300000F1080C08FA0CF8C2F8148091F803C019
:10024000BCF1480F07D100F1080C4FF0010808FA83
:100250000CF8C2F81080401C0828CED35460BDE8CA
:10026000F08102460020D3680B400BB1012000E072
:1002700000207047416170470161704710B58021CF
:100280000648FFF7EEFF20B980210448FFF7F4FF8E
:1002900003E080210148FFF7EDFF10BD0008014099
:1002A00008B50121042000F08FF80121082000F09A
:1002B0008BF84020ADF8000010208DF803000320DB
:1002C0008DF8020069461548FFF740FF8020ADF821
:1002D000000010208DF8030003208DF8020069460D
:1002E0000E48FFF733FF0120ADF8000010208DF815
:1002F000030003208DF8020069460948FFF726FF36
:1003000040210648FFF7B6FF80210448FFF7B2FFFF
:1003100001210348FFF7AEFF08BD000000080140BF
:10032000000C014070B5002100230F22C47804B3F3
:10033000154C246804F4E064C4F5E064210AC1F1BA
:100340000403CA40447804FA03F18478144021433A
:1003500009010E4C0678A155047804F01F0501240C
:10036000AC4005786D11AD0005F1E025C5F8004100
:1003700009E0047804F01F050124AC40044D067820
:10038000761145F8264070BD0CED00E000E400E079
:1003900080E100E002490143024A11607047000019
:1003A0000000FA050CED00E029B1064AD2690243CB
:1003B000044BDA6104E0034AD2698243014BDA61FB
:1003C000704700000010024029B1064A92690243BA
:1003D000044B9A6104E0034A92698243014B9A619B
:1003E000704700000010024010B500F001F810BD89
:1003F0000CB50020019000903348006840F4803034
:100400003149086000BF3048006800F400300090B7
:100410000198401C0190009818B90198B0F5A06FA0
:10042000F1D12948006800F4003010B1012000909B
:1004300001E0002000900098012843D12348006883
:1004400040F01000214908600846006820F00300D1
:1004500008600846006840F0020008601A484068DA
:10046000194948600846406848600846406840F4BA
:10047000806048600846406820F47C104860084668
:10048000406840F4E81048600846006840F080701A
:10049000086000BF0C48006800F000700028F9D028
:1004A0000948406820F00300074948600846406852
:1004B00040F00200486000BF0348406800F00C00B4
:1004C0000828F9D10CBD00000010024000200240B5
:1004D00010B51348006840F0010011490860084653
:1004E0004068104908400E494860084600680E49B7
:1004F00008400B4908600846006820F48020086026
:100500000846406820F4FE0048604FF41F008860F1
:10051000FFF76AFF4FF000600449086010BD00005B
:10052000001002400000FFF8FFFFF6FE08ED00E0BB
:100530000020014908607047082C004040F080010D
:10054000014A116070470000002C00400120014961
:1005500008607047A480054210B57F2000F028F89D
:10056000FFF7E6FFFFF78AFE10BD08B50121C802BC
:10057000FFF71AFF4FF4C07000F022F85F2000F080
:100580002BF87F20FFF7DAFF00208DF80000022013
:100590008DF8010003208DF8020001208DF8030082
:1005A0006846FFF7BFFEFFF7C3FFFFF7CFFF08BDA9
:1005B00000F07F01014A116070470000002C0040EC
:1005C0000021044A126822F4C0710143014A1160FB
:1005D00070470000042C004008B500210091074935
:1005E000096821F07F01009100F07F01009A11431A
:1005F0000091024A0099116008BD0000042C0040DF
:1006000002E008C8121F08C1002AFAD170477047DB
:10061000002001E001C1121F002AFBD170470146F2
:1006200042F228324A434FF0E0235A6100229A6195
:100630001A46126942F001021A6100BF4FF0E0222F
:10064000106900F001021AB100F48032002AF5D0DE
:100650004FF0E022126922F001024FF0E0231A610C
:1006600000229A6170470000FFF71AFE4FF4A06065
:10067000FFF790FE4FF4FA70FFF7D1FFFFF775FF19
:1006800040210448FFF7F8FD02E05A20FFF7C7FFBA
:10069000FBE7000000080140A80600080000002059
:0806A000000400001006000830
:04000005080000ED02
:00000001FF
