:020000040800F2
:10000000280B0020050100080D0100080F01000861
:10001000110100081301000815010008000000008C
:1000200000000000000000000000000017010008B0
:1000300019010008000000001B0100081D01000854
:100040001F0100081F0100081F0100081F01000810
:100050001F0100081F0100081F0100081F01000800
:100060001F0100081F0100081F0100081F010008F0
:100070001F0100081F0100081F0100081F010008E0
:100080001F0100081F0100081F0100081F010008D0
:100090001F0100081F0100081F0100081F010008C0
:1000A0001F0100081F0100081F0100081F010008B0
:1000B0000D130008311300081F0100081F0100087C
:1000C0001F0100081F0100081F0100081F01000890
:1000D0001F010008D11600081F0100081F010008B9
:1000E0001F0100081F0100081F010008DFF810D0E1
:1000F00000F008FB004800474D230008AFF30080E4
:10010000280B00200648804706480047FEE7FEE728
:10011000FEE7FEE7FEE7FEE7FEE7FEE7FEE7FEE7B7
:10012000AD120008ED000008F0B480EA0102D40F1F
:100130004200B2EB410F02D20246084611464A0085
:1001400042D0C30DDDB2C1F3C752AD1A202D35DA4E
:10015000C1F3160141F4000204B15242C5F1200678
:1001600002FA06F12A411044B3EBD05F23D0C4B1A8
:10017000012DA0EBC35009DCF0BC4FF0004202EAB5
:10018000C352DBB200F5000000F0D6B8400000F129
:10019000807000EBC350A0F1807040EAD17049003C
:1001A00009E0490841EAC071A0EBC35000F5000026
:1001B000400800EBC350F0BC00F0B5B8614201222A
:1001C00002EB4101001BF6E7F0BC704781F00041F3
:1001D000AAE780F00040A7E730B480EA010202F00D
:1001E000004530F0004221F0004013D090B1C30D23
:1001F000D40DC2F31601C0F31600E41A41F4000155
:1002000040F400027D34914201D3641C00E04900B7
:10021000002C02DA30BC002070474FF400000023AD
:10022000914201D3891A034340084FEA4101F7D1B3
:1002300051B1914202D14FF0004105E002D24FF09E
:10024000010101E06FF0010103EBC450284430BC10
:1002500000F069B896230022114600F06DB800F056
:10026000004230F000400AD0C10D01F56071C0F3CA
:10027000160042EA0151C2084007114370470020AE
:1002800001467047002801DBC0F10040002901DB76
:10029000C1F100418142704730B50B460146002054
:1002A0002022012409E021FA02F59D4205D303FA38
:1002B00002F5491B04FA02F52844151EA2F10102B9
:1002C000F1DC30BD2DE9F05F0546002092469B46EB
:1002D00088460646814640241BE02846414647465C
:1002E000224600F030FA53465A46C01A914110D3C4
:1002F00011461846224600F017FA2D1A67EB01083E
:100300004F4622460120002100F00EFA17EB0009AB
:100310004E41201EA4F10104DFDC484631462A4646
:100320004346BDE8F09F0029A8BF7047401C490024
:1003300008BF20F00100704710B4B0FA80FC00FA4A
:100340000CF050EA010404BF10BC704749B1CCF175
:10035000200421FA04F411FA0CF118BF0121214301
:100360000843A3EB0C01CB1D4FEA00614FEA1020BC
:1003700042BF002010BC704700EBC350104400295E
:10038000A4BF10BC7047401C490008BF20F001000A
:1003900010BC70472DE9FE4F804681EA0300C00F74
:1003A0000C46009021F0004123F00045B8EB02001C
:1003B000A94105D24046214690461C460B460246BE
:1003C00023F00040104347D0270DC7F30A00C3F3C2
:1003D0000A510290401A019040286BDAC3F31300CF
:1003E00040F4801B0098924620B10023D2EB030A10
:1003F00063EB0B0B01985946C0F14002504600F0E8
:1004000093F906460D4650465946019A00F0ABF95D
:1004100010EB08006141002487EA115284EAE77377
:100420001A4340D0009A62B3019A012A4FEA075258
:1004300015DC001B61EB02014FF0004202EA07529B
:10044000CDE90042001C41F5801132462B4600F0F8
:10045000ABF903B0BDE8F08F40462146F9E7001B39
:1004600061EB0201001C41F5801300185B4120186C
:10047000A2F5001747EB030140EAD570B6196D41AC
:1004800011E06D084FEA360645EAC0754FEA07529B
:10049000001B61EB0201001C41F5801149084FEA85
:1004A00030000019514132462B4603B0BDE8F04FF1
:1004B00000F06BB90098012240000023D0EB02024B
:1004C00063EBE073009821464FEAE074B8EB00005C
:1004D00061EB0401E9E783F000435BE781F0004151
:1004E00058E72DE9FE4F81EA030404F0004421F0AF
:1004F000004100944FF0000B23F0004350EA010448
:100500005ED052EA03045BD0C3F30A54C1F30A5528
:100510002C44A4F2F3340194A0FB0254C1F3130160
:1005200041F48011C3F3130343F4801301FB02442D
:1005300000FB034E840A970A44EA815447EA835732
:10054000A4FB076802958D0A05FB07854FEA932CEB
:1005500004FB0C542705029D4FEA065847EA16375C
:10056000B5EB08056EEB070C870E920E47EA811774
:1005700042EA8312A7FB0201B6EB0B0164EB000415
:100580002B0D43EA0C335E1844EB1C50DA465146FF
:10059000E7FB0201C5F313044FEA0B3343EA14539C
:1005A0004FEA0432019C43EA0603A4F10C040294CE
:1005B000009CCDE900B400F0F7F803B0BDE8F08F7F
:1005C00000200146F9E72DE9F04D81EA030404F02B
:1005D000004B21F0004514464FF0000A23F0004183
:1005E00050EA050220D054EA01021DD0C5F30A5793
:1005F0000246C5F31303C1F31300C1F30A5640F4D6
:10060000801543F48013A7EB0608101BD64608F2AA
:10061000FD3873EB050002D308F1010801E09218E0
:100620005B41B8F1000F03DA00200146BDE8F08D10
:1006300000204FF48011064684460EE0171B73EB32
:10064000050705D3121B63EB050306434CEA010CB7
:1006500049084FEA300092185B4150EA0107EDD19A
:1006600052EA030012D082EA040083EA050108433B
:1006700005D0101BAB4106D20122002306E0002268
:100680004FF0004302E06FF0010253101AEB060036
:100690004CEB085110EB0A0041EB0B01BDE8F04DAB
:1006A00000F073B8C1F30A52C1F3130140F2FF33F3
:1006B00041F480119A4202DA00200146704740F26C
:1006C00033439A42A2F2334202DC524200F03BB87A
:1006D00000F02AB830B5041E71F1000404DB4FF0BD
:1006E0000044404264EB0101141E73F1000405DB79
:1006F0001C464FF00043524263EB0403994208BF8B
:10070000904230BD064C074D06E0E06840F0010322
:1007100094E8070098471034AC42F6D3FFF7EAFCA0
:10072000202D0008402D0008202A04DB203A00FA82
:1007300002F1002070479140C2F1200320FA03F338
:10074000194390407047202A04DB203A21FA02F036
:100750000021704721FA02F3D040C2F120029140FB
:10076000084319467047202A06DBCB17203A41FA86
:1007700002F043EAE07306E041FA02F3D040C2F12E
:100780002002914008431946704710B5141E73F1BA
:10079000000408DA401C41F1000192185B411A4341
:1007A00001D120F0010010BD2DE9F04D92469B468D
:1007B00011B1B1FA81F202E0B0FA80F22032904633
:1007C000FFF7B2FF04460F4640EA0A0041EA0B0178
:1007D00053465A46084313D0114653EA010019D034
:1007E000C8F140025046FFF7AEFF05460E465046A0
:1007F00059464246FFF798FF084305D0012004E020
:1008000020463946BDE8F08D0020054346EAE076F3
:100810002C4337430A986305E40AA0EB0800002242
:10082000FD0A44EA47540A3002D500200146E9E7B0
:10083000010510196941DDE9084500196941BDE864
:10084000F04DA2E770B58C1810F8015B15F00703A6
:1008500001D110F8013B2A1106D110F8012B03E059
:1008600010F8016B01F8016B5B1EF9D12B0705D461
:100870000023521E0DD401F8013BFAE710F8013BAA
:10088000CB1A921C03E013F8015B01F8015B521EC6
:10089000F9D5A142D8D3002070BD2DE9F041024620
:1008A00000250026002000230024002791F803C023
:1008B0000CF00F0591F803C00CF0100CBCF1000F08
:1008C00003D091F802C04CEA050591F800C0BCF1D4
:1008D000000F31D0146800202BE04FF0010C0CFA0F
:1008E00000F3B1F800C00CEA03069E4220D1830059
:1008F0004FF00F0C0CFA03F7BC4305FA03FC4CEA6B
:10090000040491F803C0BCF1280F06D14FF0010C8C
:100910000CFA00FCC2F814C00AE091F803C0BCF164
:10092000480F05D14FF0010C0CFA00FCC2F810C0C2
:10093000401C0828D1D31460B1F800C0BCF1FF0FEF
:1009400034DD546800202EE000F1080C4FF001085F
:1009500008FA0CF3B1F800C00CEA03069E4221D15C
:1009600083004FF00F0C0CFA03F7BC4305FA03FCAD
:100970004CEA040491F803C0BCF1280F05D100F142
:10098000080C08FA0CF8C2F8148091F803C0BCF106
:10099000480F07D100F1080C4FF0010808FA0CF8D5
:1009A000C2F81080401C0828CED35460BDE8F08106
:1009B0000246002093680B400BB1012000E00020AC
:1009C00070474161704701617047000010B500BF7A
:1009D000094800784FF47A7100FB01F4C80600F072
:1009E00005FE044400204FF080418884322001F04D
:1009F0005FFC204610BD0000140600202DE9F047E2
:100A000000240026A146002544E004212B48FFF7DE
:100A1000DAFF142001F070FC04212848FFF7D1FF11
:100A200000BF08212548FFF7C3FF0028F9D00021A7
:100A30004FF0804000F0F7FD0020214908700121AF
:100A4000880700F0D3FC681C85B200BF08211B4852
:100A5000FFF7AEFF0128F9D000214FF0804000F0F1
:100A6000C5FCFFF7B3FF0746FFF7F4FB0646154941
:100A70003046FFF7B1FB04462046FFF7F0FB074680
:100A80003A460B4610A000F095FF21464846FFF776
:100A90004BFB8146052DB8D10F494846FFF79CFB1B
:100AA00004462046FFF7DBFB07463A460B460BA001
:100AB00000F080FF2046BDE8F087000000080140FC
:100AC0001406002000006842646973203D202566FA
:100AD000636D0D0A000000000000A0406469735FB0
:100AE00061766572616765203D202566636D0D0A3C
:100AF0000000000000B585B00121042000F0D8FA04
:100B00000420ADF8000003208DF8020010208DF8BD
:100B1000030069462448FFF7C0FE04212248FFF77E
:100B200050FF0820ADF8000004208DF8030069464E
:100B30001D48FFF7B2FE08211B48FFF742FF0121C5
:100B4000084600F095FA4FF0804000F05BFC40F260
:100B5000E730ADF80C004720ADF808000020ADF8F4
:100B60000E00ADF80A0002A94FF0804000F05EFDD3
:100B70000121880700F034FC0121880700F036FCD1
:100B800001221146900700F045FD1C208DF804005D
:100B900001208DF807008DF805008DF8060001A8EA
:100BA00000F080F805B000BD0008014010B54FF41A
:100BB00080610948FFF707FF4FF400610648FFF71F
:100BC00002FF4FF400610448FFF7FBFE4FF4806121
:100BD0000148FFF7F6FE10BD000C014010B54FF4C0
:100BE00080610748FFF7EFFE4FF400610448FFF70C
:100BF000E8FE4FF400610248FFF7E5FE10BD00007B
:100C0000000C014010B54FF480610448FFF7DBFE93
:100C10004FF480610148FFF7D4FE10BD000C014085
:100C200008B50121042000F043FA0121082000F05A
:100C30003FFA4020ADF8000010208DF8030003209B
:100C40008DF8020069461548FFF727FE8020ADF8B1
:100C5000000010208DF8030003208DF80200694683
:100C60000E48FFF71AFE0120ADF8000010208DF8A5
:100C7000030003208DF8020069460948FFF70DFEC6
:100C800040210648FFF79DFE80210448FFF799FEAA
:100C900001210348FFF795FE08BD00000008014050
:100CA000000C014070B5002100230F22C47804B36A
:100CB000154C246804F4E064C4F5E064210AC1F131
:100CC0000403CA40447804FA03F1847814402143B1
:100CD00009010E4C0678A155047804F01F05012483
:100CE000AC4005786D11AD0005F1E025C5F8004177
:100CF00009E0047804F01F050124AC40044D067897
:100D0000761145F8264070BD0CED00E000E400E0EF
:100D100080E100E070B5002418E004F1B00000218B
:100D200000F099F90021084600F095F90021102003
:100D300000F091F9002505E00121002000F08BF979
:100D4000681CC5B2802DF7DB601CC4B2082CE4DB44
:100D500070BD000008B50121082000F0A9F94FF48A
:100D60004060ADF8000010208DF8030003208DF8DE
:100D7000020069463948FFF790FD642001F098FAB7
:100D80000021AE2000F067F90021084600F063F969
:100D90000021102000F05FF90021402000F05BF9F5
:100DA0000021B02000F057F90021812000F053F914
:100DB0000021FF2000F04FF90021A12000F04BF9A5
:100DC0000021A62000F047F90021A82000F043F9F7
:100DD00000213F2000F03FF90021C82000F03BF93E
:100DE0000021D32000F037F90021084600F033F944
:100DF0000021D52000F02FF90021802000F02BF9F0
:100E00000021D82000F027F90021052000F023F967
:100E10000021D92000F01FF90021F12000F01BF97A
:100E20000021DA2000F017F90021122000F013F958
:100E30000021DB2000F00FF90021302000F00BF939
:100E400000218D2000F007F90021142000F003F9A3
:100E50000021AF2000F0FFF808BD0000000C0140A9
:100E600070B504460D4605F1B000002100F0F3F81E
:100E7000102141EA1410002100F0EDF804F00F00F9
:100E8000002100F0E8F870BD2DE9F04180460E46E3
:100E90001546002731464046FFF7E2FF00240AE0EE
:100EA000124A02EB8511085D012100F0D4F8781C8C
:100EB000C7B2601CC4B2102CF2DB701CC1B2404639
:100EC000FFF7CEFF00240CE06900491C074A02EB43
:100ED0004111085D012100F0BEF8781CC7B2601C0A
:100EE000C4B2102CF0DBBDE8F0810000140000203B
:100EF0002DE9F04707460E46904699460025002406
:100F0000A8F12000C5B27F2F02DD0027B01CC6B2B9
:100F1000B9F1100F24D131463846FFF7A1FF002464
:100F200008E004EB0511194A505C012100F093F828
:100F3000601CC4B2082CF4DB701CC1B23846FFF749
:100F40008FFF002409E004EB051108310F4A505CC3
:100F5000012100F080F8601CC4B2082CF3DB12E021
:100F600031463846FFF77CFF00240AE005EB4501D7
:100F7000074A02EB4101085D012100F06CF8601C9A
:100F8000C4B2062CF2DBBDE8F08700003027000871
:100F9000082500082DE9FF5F074691461E460E9D75
:100FA0004FF0000A002435E0301B401EC1B20A2079
:100FB00001F04EFAB9FBF0F00A21B0FBF1F201FBAF
:100FC0001208BAF1000F14D1701EA04211DDB8F161
:100FD000000F0CD1AB4605EBDB71491001FB04712E
:100FE000C8B22B4630220199FFF782FF10E04FF084
:100FF000010AAB4605EBDB71491001FB0471C8B275
:1010000008F13001CAB22B460199FFF771FF00BF0A
:10101000601CC4B2B442C7DBBDE8FF9F2DE9F041BC
:1010200004460F461546984600260FE0AA5D434643
:1010300039462046FFF75CFF04F10800C4B2782C63
:1010400002DD0024781CC7B2701CC6B2A85D00285F
:10105000ECD1BDE8F08170B504460D461DB1E0B29B
:1010600000F092FC02E0E0B200F078FC70BD0000FD
:1010700029B1064AD2690243044BDA6104E0034A0B
:10108000D2698243014BDA617047000000100240D0
:1010900029B1064A12690243044B1A6104E0034A6B
:1010A00012698243014B1A61704700000010024030
:1010B00029B1064A92690243044B9A6104E0034A4B
:1010C00092698243014B9A61704700000010024010
:1010D00029B1064AD2680243044BDA6004E0034AAD
:1010E000D2688243014BDA60704700000010024072
:1010F00030B500210022002400232D4D6D6805F03D
:101100000C0121B1042905D0082923D105E0294D7E
:10111000056022E0274D05601FE0254D6D6805F450
:101120007012234D6D6805F48034022505EB924260
:101130001CB9214D554305600BE01D4D6D6805F44C
:1011400000351DB11C4D5543056002E0194D554356
:10115000056002E0174D056000BF00BF144D6D68CB
:1011600005F0F0010909154D6B5C0568DD4045602F
:101170000F4D6D6805F4E061090A104D6B5C456820
:10118000DD4085600A4D6D6805F46051C90A0B4D5C
:101190006B5C4568DD40C560054D6D6805F44041F8
:1011A000890B074D6B5CC568B5FBF3F5056130BD78
:1011B0000010024000127A0000093D0000000020EB
:1011C0001000002010B500F001F810BD0CB5002093
:1011D000019000903348006840F480303149086045
:1011E00000BF3048006800F4003000900198401CB7
:1011F0000190009818B90198B0F5A06FF1D1294875
:10120000006800F4003010B10120009001E00020DF
:1012100000900098012843D12348006840F0100056
:10122000214908600846006820F00300086008466D
:10123000006840F0020008601A4840681949486098
:101240000846406848600846406840F4806048604E
:101250000846406820F47C1048600846406840F426
:10126000E81048600846006840F08070086000BFE1
:101270000C48006800F000700028F9D00948406868
:1012800020F00300074948600846406840F002002B
:10129000486000BF0348406800F00C000828F9D1FE
:1012A0000CBD0000001002400020024010B51348A1
:1012B000006840F001001149086008464068104984
:1012C00008400E494860084600680E4908400B492E
:1012D00008600846006820F48020086008464068DE
:1012E00020F4FE0048604FF41F008860FFF76AFF9B
:1012F0004FF000600449086010BD0000001002407B
:101300000000FFF8FFFFF6FE08ED00E010B5012138
:10131000880700F06EF940B10121880700F063F8FA
:1013200002480078401C0149087010BD14060020D6
:1013300008B501210C4800F05CF9A0B101210A4870
:1013400000F051F80948016809A000F033FB1020B3
:10135000012300900548032102681846FFF71AFE92
:1013600000200249086008BD00040040200600205B
:10137000636E743D25640A007FB505460C46012165
:101380000220FFF775FE154800F03CF8ADF8085054
:10139000ADF804400020ADF80A00ADF8060001A940
:1013A0000E4800F043F901210C4800F019F8012122
:1013B0000A4800F01BF801221146084800F02AF9FB
:1013C0001D208DF8000001208DF803008DF801002C
:1013D0008DF802006846FFF765FC7FBD0004004001
:1013E000CA4302827047CA430282704721B1028811
:1013F00042F00102028004E002884FF6FE731A40B8
:101400000280704710B504466848844208D1012123
:10141000C014FFF75DFE0021E014FFF759FEC4E0A1
:10142000B4F1804F08D101210846FFF731FE0021B9
:101430000120FFF72DFEB8E05D48844208D101216C
:101440000220FFF725FE00210220FFF721FEACE07D
:101450005848844208D101210420FFF719FE0021D9
:101460000420FFF715FEA0E05348844208D1012173
:101470000820FFF70DFE00210820FFF709FE94E089
:101480004E48844208D101211020FFF701FE0021BF
:101490001020FFF7FDFD88E04948844208D1012172
:1014A0002020FFF7F5FD00212020FFF7F1FD7CE073
:1014B0004448844208D101214014FFF709FE00216D
:1014C0006014FFF705FE70E03F48844209D1012116
:1014D000C804FFF7FDFD00214FF40020FFF7F8FDE1
:1014E00063E03A48844209D101210805FFF7F0FD85
:1014F00000214FF48010FFF7EBFD56E034488442A2
:1015000009D101214805FFF7E3FD00214FF4001048
:10151000FFF7DEFD49E02F48844208D10121402039
:10152000FFF7B6FD00214020FFF7B2FD3DE02A485D
:10153000844208D101218020FFF7AAFD00218020EC
:10154000FFF7A6FD31E02548844208D1012180152E
:10155000FFF79EFD0021A015FFF79AFD25E020482A
:10156000844209D101210804FFF7B2FD00214FF4A4
:101570008030FFF7ADFD18E01A48844209D10121FF
:101580004804FFF7A5FD00214FF40030FFF7A0FD50
:101590000BE01548844208D101218804FFF798FD2B
:1015A00000214FF48020FFF793FD10BD002C014077
:1015B0000004004000080040000C00400010004003
:1015C0000014004000340140004C01400050014034
:1015D0000054014000180040001C00400020004062
:1015E0000040014000440140004801400146888C11
:1015F000704730B50246002000230024158A05EA12
:101600000103958905EA010413B10CB1012000E042
:10161000002030BD1AB183890B43838102E08389A6
:101620008B438381704781847047000000220288C9
:101630001D4B98420ED01D4B98420BD0B0F1804FFD
:1016400008D01B4B984205D01A4B984202D01A4B37
:10165000984204D14FF68F731A404B881A43174BA8
:10166000984207D0164B984204D04FF6FF431A40D9
:10167000CB881A4302808B8883850B8803850A4BAD
:1016800098420BD0094B984208D00E4B984205D097
:101690000D4B984202D00D4B984201D10B7A038634
:1016A0000123838270470000002C01400034014078
:1016B0000004004000080040000C00400010004002
:1016C0000014004000400140004401400048014037
:1016D00010B540F22551204800F050F800283AD0CB
:1016E0001D4800F007F9C4B21C48008800F400400F
:1016F000F8B91A48008800F4804090B10A2C03D051
:1017000000201649088026E01448008840F4004074
:101710001249088000200988C1F30D01104A505475
:1017200019E00D2C06D10D48008840F480400B498B
:10173000088010E009480088C0F30D0008490C54E7
:1017400006480088401C0549088008460088FF2894
:1017500001DD0020088010BD003801401C0600207B
:101760002406002021B1828942F40052828104E0E3
:1017700082894DF6FF731A408281704770B5024628
:10178000002400230025002040F66A16B14200D153
:1017900000BFC1F3421501F01F03012606FA03F34F
:1017A000012D02D19689334006E0022D02D1168A1E
:1017B000334001E0968A33400C12012606FA04F405
:1017C0001688344013B10CB1012000E0002070BD38
:1017D000F0B50346002400260025002040F66A17D5
:1017E000B94200D100BF1846C1F3421401F01F06F0
:1017F000012707FA06F5012C01D10C3004E0022C78
:1018000001D1103000E014301AB107682F4307608F
:1018100002E00768AF430760F0BD00002DE9F04724
:1018200086B005460E460024A24600BFA14600270A
:10183000B08900B100BF2F462C8A4CF6FF700440DF
:10184000F08804432C82AC894EF6F3100440B08833
:1018500031890843718908430443AC81AC8A4FF64F
:10186000FF400440B0890443AC8201A8FFF740FC6C
:101870001F48874202D1DDF810A001E0DDF80CA07E
:10188000A88900F4004040B10AEBCA0000EB0A103E
:1018900031684900B0FBF1F807E00AEBCA0000EB41
:1018A0000A1031688900B0FBF1F86420B8FBF0F051
:1018B00004012009642101FB1089A88900F400407B
:1018C00040B1322000EBC900B0FBF1F000F007009E
:1018D000044308E0322000EB09106421B0FBF1F072
:1018E00000F00F0004432C8106B0BDE8F087000033
:1018F0000038014001468888C0F3080070470000A6
:101900002DE9F04105462C464FF480611248FFF75F
:1019100058F800261CE0274607F08007802F04D1E6
:1019200039010D48FFF74FF804E04FF400610A4811
:10193000FFF747F86006040E4FF480610648FFF792
:1019400042F84FF480610448FFF73BF8701CC6B2C0
:10195000082EE0DBBDE8F081000C014010B5044624
:10196000FFF724F97820FFF7CBFFFFF74BF90020B2
:10197000FFF7C6FFFFF746F92046FFF7C1FFFFF765
:1019800041F9FFF72BF910BD10B50446FFF70EF92A
:101990007820FFF7B5FFFFF735F94020FFF7B0FFDC
:1019A000FFF730F92046FFF7ABFFFFF72BF9FFF702
:1019B00015F910BD0FB4054B10B503A9044A0298E0
:1019C00000F0EEF810BC5DF814FB000031230008B5
:1019D000180600200FB4084B10B504A902AA0398FA
:1019E00000F0DEF8044602A9002000F05CFC20466E
:1019F00010BC5DF814FB0000A722000802E008C834
:101A0000121F08C1002AFAD170477047002001E078
:101A100001C1121F002AFBD1704700002DE9FF5FB2
:101A200082B00021DDE90430020DDDF840B003434F
:101A300018D044F61050A2F2FF3242431514119808
:101A400001281FD0A5EB0B00401C5FEA000A4FF0F5
:101A500000064E4FDFF83891B046504615D5CAF112
:101A6000000413E0119801244AA3012801D16FEA70
:101A70000B010298119AC0E90031C0E9024206B098
:101A8000BDE8F09FCBF10000DFE704460021404AAB
:101A9000491842EB0450CDE9001012E0E00707D0EE
:101AA00032463B4640464946FEF71BFD8046894686
:101AB00032463B4610461946FEF713FD06460F46D2
:101AC0006410002CEAD1DDE90401DDE90023BAF15C
:101AD000000F06DAFEF705FD42464B46FEF701FD14
:101AE00005E0FEF770FD42464B46FEF76CFD0446EE
:101AF0000E460022284BFEF7EDFD03D84FF0FF30D5
:101B0000014607E00022254B20463146FEF742FC05
:101B1000FEF7C8FD102409E0002C0ADB0A2200238E
:101B2000FEF7D0FB039B30321A55641E50EA0102C7
:101B3000F2D1641C039AC4F111031444119A012ACE
:101B400003D0012208430DD10AE0084304D000204D
:101B50004FF0110B119072E7A3EB0B056D1E0DE01A
:101B60005B4504DD4FF0000205F1010504E003DAF6
:101B70004FF00002A5F10105002AECD0029811995E
:101B8000C0E90231C0E9004579E7000000001440D7
:101B90000000F03F300000000000F0430000E03F94
:101BA0002DE9FF4F95B09A46884606460025EEE19E
:101BB000252877D100242746F94A0121039400E023
:101BC000044316F8013F203B01FA03F01042F7D11D
:101BD00030782A2811D06FF02F033078A0F130022E
:101BE000092A16D8039A44F0020402EB820203EB9E
:101BF00042021044761C0390EFE758F8042B03923E
:101C0000002A03DA504244F40054039044F00204E2
:101C1000761C30782E2816D116F8010F44F00404F3
:101C20002A280DD06FF02F023078A0F13003092B55
:101C300009D807EB870302EB4303C718761CF3E7C9
:101C400058F8047B761C30786C280FD006DC4C28C2
:101C500017D068280DD06A2814D104E0742810D059
:101C60007A280FD10DE044F400140AE044F4801403
:101C700001E044F440147278824202D104F58014E9
:101C8000761C761C307866280BD013DC582877D069
:101C900009DC002875D04528F6D04628F4D047281E
:101CA0001AD193E118E0632835D0642879D06528EB
:101CB00012D18BE1702873D008DC6728F1D0692835
:101CC0006FD06E280DD06F2806D1ACE073282CD0D1
:101CD000752874D0782853D05246179990476D1CB8
:101CE00054E1C4F30250022809D003280DD0D8F8DB
:101CF000001004280DD00D6008F1040846E1D8F862
:101D00000010EA17C1E90052F6E7D8F800100D807C
:101D1000F2E70D70F0E718F8041B8DF800100020B2
:101D20008DF80100EB46012003E058F804BB4FF0AA
:101D3000FF3061074FF0000102D40DE009F101010D
:101D40008946B9420FDA8145F8DB1BF809100029F2
:101D5000F4D108E009F1010189468142FADB1BF860
:101D600009100029F6D103985346A0EB0907214634
:101D70003846179A00F080FA284400EB090507E07E
:101D800044E008E10DE01BF8010B5246179990471B
:101D9000B9F10109F7D2534621463846179AF2E0C5
:101DA00039E00A21C4F302524FF0000B0091022ADD
:101DB00006D058F8040BC117032A09D00AE023E023
:101DC00008F1070020F00702F2E80201904605E062
:101DD00000B2C117042A01D140B2C117002906DAA6
:101DE0000A460021404261EB02012D2202E0220559
:101DF00004D52B228DF80420012203E0E20701D054
:101E00002022F7E7914657E00A2100E010214FF029
:101E1000000B00910BE010214FF0000B44F0040484
:101E20000827009103E008204FF0000B0090C4F356
:101E30000252022A05D058F8040B0021032A08D0C8
:101E400008E008F1070020F00702F2E802019046DE
:101E500003E080B2042A00D1C0B24FF0000922078B
:101E60002AD53278702A07D0DDF800C08CF0100C2B
:101E70005CEA0B0C05D00EE040228DF80420012214
:101E800008E050EA010306D030238DF804308DF8C5
:101E9000052002229146009B83F0080353EA0B03BE
:101EA0000AD150EA010201D1620705D530228DF82E
:101EB00004204FF001097F1E3278582A04D039A23D
:101EC0000C920CAA02920BE03BA2F9E75B46009A47
:101ED000FEF7F8F90C9B9B5C029A521E029213705B
:101EE00050EA0102F2D1029804A9081A00F1200B6D
:101EF000600702D524F4803400E001275F4502DD4D
:101F0000A7EB0B0000E0002000EB0B010090039812
:101F10004944401A0390E00306D453462146179AD9
:101F2000039800F0A9F90544002706E001A85246ED
:101F3000C05D179990476D1C7F1C4F45F6DBE00391
:101F40000CD553462146179A039800F095F905449D
:101F500004E030205246179990476D1C0099481EA6
:101F600000900029F5DC08E00298029952460078BA
:101F7000491C0291179990476D1CBBF10001ABF110
:101F8000010BF1DC5BE100F065F90544761C30786B
:101F900000287FF40DAE19B02846BDE8F08F000090
:101FA000092801003031323334353637383961622F
:101FB00063646566000000003031323334353637F3
:101FC000383941424344454600000000600700D4D0
:101FD000062708F1070020F00700F0E802238046FA
:101FE00003F0004C5FEA0C0001D097A009E0200547
:101FF00001D596A005E0E00701D095A001E0AFF281
:102000004C001390307823F0004365280CD006DC98
:10201000452809D046281DD047287FD13BE06628B7
:1020200018D067287AD136E00021112F01DB11206A
:1020300000E0781CCDE9000104A90CA8FFF7EEFC34
:10204000DDE90D010C9A4FF0000B07F10109109228
:1020500000914EE04FF000400097CDE9011004A937
:102060000CA8FFF7DBFCDDE90D020C9B0F994FF08C
:10207000000B91461093009211B9791C00EB0109F5
:10208000B7EB090003D4C0F1FF3B07F10109A9EB4D
:102090000700019042E0012F00DA01270021112FF3
:1020A00001DD112000E03846CDE9000104A90CA8AB
:1020B000FFF7B4FCDDE90D010C9A00914FF0000B25
:1020C000B946109221070FD4009A4A4503DA914687
:1020D00001E0A9F10109B9F1010F05DD109AA9F19B
:1020E0000101515C3029F4D0B84202DA10F1040F3A
:1020F00003DA0121CDE9011010E0002803DC83445C
:10210000A9EB000102E0411C494500DD8946A0EB36
:102110000B00401C01904FF000400290200705D4B6
:102120000198484502DB4FF0FF30019000208DF808
:102130004B0002980DF14B07B0F1004F25D0022063
:102140000C902B200D90029800280CDA404202904F
:102150002D200D9007E00A210298FEF79DF83031FE
:10216000029007F8011D0C99481E0C900029F2DC22
:1021700002980028EFD1791E0D980870307800F091
:10218000200040F0450007F8020D11A8C01BC01D3B
:1021900002901398007800B1012000EB090101982A
:1021A00001EBE071029801440398401A401E03902D
:1021B000E00306D453462146179A039800F05CF8D2
:1021C00005441398007818B15246179990476D1C32
:1021D000E00323D553462146179A039800F04CF8A4
:1021E00005441BE0BBF1000F07DB0098584504DDF8
:1021F0001098179910F80B0001E0179930205246FB
:10220000904701980BF1010B401E05F1010501906B
:1022100004D12E205246179990476D1CB9F1000148
:10222000A9F10109DEDC05E017F8010B5246179908
:1022300090476D1C0299481E02900029F4DC534619
:102240002146179A03989EE62D0000002B000000FF
:10225000200000002DE9F041044600251E461746E7
:10226000880404D405E039462020B0476D1C641E64
:10227000F9D52846BDE8F0812DE9F0410446002556
:102280001E469046C80301D5302700E02027880469
:1022900004D505E041463846B0476D1C641EF9D5AB
:1022A0002846BDE8F0810A68531C0B601070704727
:1022B000014642F228324A434FF0E0235A6100229D
:1022C0009A611A46126942F001021A6100BF4FF08A
:1022D000E022106900F001021AB100F48032002AF5
:1022E000F5D04FF0E022126922F001024FF0E02316
:1022F0001A6100229A617047014601EBC1024FF05A
:10230000E0235A6100229A6101221A6100BF4FF056
:10231000E022106900F001021AB100F48032002AB4
:10232000F5D000224FF0E0231A619A617047000057
:1023300000BF054A128802F04002002AF9D0C2B25A
:10234000014B1B1D1A807047003801408AB04FF4C2
:10235000E13000F089F8FEF763FCFEF7FBFCFEF7C6
:10236000D9FCFEF7C7FB41F61F4142F20F70FFF7A1
:1023700003F801210820FEF79BFE4FF40050ADF852
:10238000040010208DF8070003208DF8060001A935
:102390002A48FEF782FA4FF400512848FEF711FB55
:1023A0004AE027480068401C25490860FEF726FBE4
:1023B0000646062200210846FEF766FD0722002198
:1023C0001020FEF761FD052200212020FEF75CFDB4
:1023D0003046FDF744FF044622460B4619A102A8E9
:1023E000FFF7F8FA082302AA01212820FEF716FEBB
:1023F00015493046FDF746FF11D240211348FEF73C
:10240000E0FA80211148FEF7DEFA4FF400510B4844
:10241000FEF7D9FA4FF49670FFF74AFF0CE040211F
:102420000A48FEF7D0FA80210848FEF7CAFA4FF4AE
:1024300000510248FEF7C5FAB3E70000000C014066
:102440002006002025660000000020410008014011
:1024500010B50246012000E050430B1EA1F101041B
:10246000E1B2F9D110BD000010B586B004460121DB
:1024700044F20400FEF71CFE4FF40070ADF81400A7
:1024800003208DF8160018208DF8170005A91C48A8
:10249000FEF703FA4FF48060ADF8140004208DF8C5
:1024A000170005A91648FEF7F8F925208DF8000059
:1024B00003208DF801008DF8020001208DF8030043
:1024C0006846FEF7EFFB01940020ADF80800ADF878
:1024D0000A00ADF80C00ADF810000C20ADF80E00AD
:1024E00001A90848FFF79AF9012240F22551054851
:1024F000FFF76EF901210348FFF734F906B010BD6C
:102500000008014000380140000000000000000009
:10251000002F000000000700070000147F147F1444
:1025200000242A7F2A1200626408132300364955CA
:10253000225000000503000000001C2241000000A2
:1025400041221C000014083E08140008083E080838
:10255000000000A060000008080808080000606093
:102560000000002010080402003E5149453E0000D2
:10257000427F4000004261514946002141454B31B4
:10258000001814127F10002745454539003C4A4980
:1025900049300001710905030036494949360006F2
:1025A0004949291E0000363600000000563600005A
:1025B00000081422410000141414141400004122D5
:1025C000140800020151090600324959513E007CAD
:1025D0001211127C007F49494936003E4141412297
:1025E000007F4141221C007F49494941007F090980
:1025F0000901003E4149497A007F0808087F000030
:10260000417F4100002040413F01007F08142241EA
:10261000007F40404040007F020C027F007F0408A2
:10262000107F003E4141413E007F09090906003EFE
:102630004151215E007F0919294600464949493127
:102640000001017F0101003F4040403F001F20404A
:10265000201F003F4038403F006314081463000708
:102660000870080700615149454300007F4141005F
:1026700000552A552A55000041417F0000040201FF
:1026800002040040404040400000010204000020DD
:1026900054545478007F484444380038444444201B
:1026A00000384444487F00385454541800087E09C8
:1026B00001020018A4A4A47C007F08040478000090
:1026C000447D4000004080847D00007F102844004D
:1026D0000000417F4000007C04180478007C08045E
:1026E000047800384444443800FC2424241800189A
:1026F000242418FC007C0804040800485454542086
:1027000000043F444020003C4040207C001C20400E
:10271000201C003C4030403C004428102844001C51
:10272000A0A0A07C004464544C4414141414141449
:102730000000000000000000000000000000000099
:10274000000000F80000000000000033300000002E
:1027500000100C06100C0600000000000000000035
:1027600040C07840C0784000043F04043F040400A7
:10277000007088FC08300000001820FF211E0000B7
:10278000F008F000E018000000211C031E211E00CC
:1027900000F00888700000001E2123241927211052
:1027A00010160E00000000000000000000000000F5
:1027B000000000E01804020000000007182040009C
:1027C00000020418E000000000402018070000008C
:1027D000404080F0804040000202010F01020200F0
:1027E000000000F0000000000101011F01010100D4
:1027F000000000000000000080B070000000000039
:1028000000000000000000000001010101010101C1
:102810000000000000000000003030000000000058
:10282000000000008060180400601806010000002D
:1028300000E010080810E000000F102020100F002A
:10284000001010F8000000000020203F20200000B1
:102850000070080808887000003028242221300009
:1028600000300888884830000018202020110E0011
:102870000000C02010F8000000070424243F2400BA
:1028800000F80888880808000019212020110E008F
:1028900000E0108888180000000F112020110E00A1
:1028A00000380808C83808000000003F0000000099
:1028B0000070880808887000001C222121221C005A
:1028C00000E010080810E0000000312222110F0083
:1028D000000000C0C0000000000000303000000018
:1028E0000000008000000000000080600000000088
:1028F00000008040201008000001020408102000A1
:1029000040404040404040000404040404040400EB
:102910000008102040800000002010080402010080
:10292000007048080808F000000000303601000080
:10293000C030C828E810E0000718272423140B0033
:102940000000C038E0000000203C230202273820AD
:1029500008F8888888700000203F202020110E0091
:10296000C030080808083800071820202010080088
:1029700008F808080810E000203F202020100F0071
:1029800008F88888E8081000203F2020232018003D
:1029900008F88888E8081000203F200003000000A5
:1029A000C03008080838000007182020221E020046
:1029B00008F808000008F808203F210101213F2005
:1029C000000808F8080800000020203F2020000030
:1029D00000000808F8080800C08080807F00000020
:1029E00008F888C028180800203F20012638200059
:1029F00008F8080000000000203F202020203000C0
:102A000008F8F800F8F80800203F003F003F2000D9
:102A100008F830C00008F808203F200007183F00E1
:102A2000E01008080810E0000F10202020100F0010
:102A300008F808080808F000203F21010101000003
:102A4000E01008080810E0000F18242438504F0048
:102A500008F8888888887000203F2000030C302008
:102A600000708808080838000038202121221C0046
:102A7000180808F8080818000000203F200000008F
:102A800008F808000008F808001F202020201F0078
:102A90000878880000C83808000007380E010000D8
:102AA000F80800F80008F800033C0700073C0300A2
:102AB000081868808068180820302C03032C302008
:102AC0000838C800C83808000000203F2000000077
:102AD00010080808C83808002038262120201800CF
:102AE000000000FE020202000000007F40404000A3
:102AF000000C30C000000000000000010638C000DB
:102B000000020202FE000000004040407F00000082
:102B100000000402020204000000000000000000A7
:102B200000000000000000008080808080808080A5
:102B3000000202040000000000000000000000008D
:102B400000008080808000000019242222223F2083
:102B500008F8008080000000003F112020110E00C6
:102B60000000008080800000000E11202020110055
:102B7000000000808088F800000E112020103F2007
:102B80000000808080800000001F2222222213008B
:102B9000008080F0888888180020203F20200000D6
:102BA0000000808080808000006B9494949360008B
:102BB00008F8008080800000203F210000203F2096
:102BC00000809898000000000020203F2020000096
:102BD000000000809898000000C08080807F000086
:102BE00008F8000080808000203F24022D30200063
:102BF000000808F8000000000020203F202000000E
:102C00008080808080808000203F20003F20003F27
:102C10008080008080800000203F210000203F2035
:102C20000000808080800000001F202020201F00E6
:102C3000808000808000000080FFA12020110E0015
:102C40000000008080808000000E112020A0FF8006
:102C5000808080008080800020203F2120000100B3
:102C60000000808080808000003324242424190008
:102C7000008080E0808000000000001F2020000015
:102C80008080000000808000001F202020103F2056
:102C9000808080000080808000010E3008060100E6
:102CA00080800080008080800F300C030C300F008B
:102CB00000808000808080000020312E0E312000B6
:102CC000808080000080808080818E7018060100E6
:102CD00000808080808080000021302C2221300004
:102CE00000000000807C020200000000003F404025
:102CF00000000000FF00000000000000FF000000D6
:102D00000002027C800000000040403F0000000004
:102D1000000601010202040400000000000000009F
:102D2000402D000800000020240600004408000890
:102D3000642F000824060020040500000C1A000877
:102D4000412D0102030404100E06070809020406BF
:102D500008080889EE981D7E42C2420302127E13C3
:102D6000020127FF804320180705133F40407800E9
:102D70000B1490884C57242454548C841301014B19
:102D8000FE42011BFE010D0111080E118060F807C3
:102D900010901011161010D0104021000D11FF409E
:102DA00040415E4040704E4140401D109292FE03F3
:102DB00008091010098A8CF88C8A0920170CFF4426
:102DC0004444FC19E91AFF04011119141E08C878BB
:102DD000CF48010A12C820001033108884434020D5
:102DE000211608142241408080031D3636163E22EB
:102DF000E2223E2BFE22010311E20217203F201F98
:102E000011111A7FC5051144444740180D040404EC
:102E1000F484D4A5A6A4D484F40C0112000E14FEEC
:102E20000202123A1613121A3242827E5A80011599
:102E3000C0C0C0800213C0200B081870E08080F86A
:102E4000FF3F070210FF180AC040707C5C4C4040F6
:102E5000403F011419311809024EDE9C88C0FFFF63
:102E60003F0116180880C0F13F1F7FF965031184E8
:102E70008F4610180E070104130707033B8F8401C8
:102E8000000916C5C5C584FCFEFE0408091710100C
:102E9000103070783F1F8211000A12C0F8FCBC8C01
:102EA000888080801B2030821CE3E1C0E41901F996
:102EB000BC69010D11C0E0E0C03E2CFFFFFF37FDF3
:102EC000607070603C596029013C3F3F3F08023010
:102ED00020196049390E1020203030303F042C7FFB
:102EE0007F7F0213FC8A0801FBE8FF310A1EF8A06D
:102EF0005A883C061C0C06060604061280E0FC7F7D
:102F00001F000C134040602030181C0E0703010006
:102F1000091D03030F3E78E0C080000B200103076A
:102F20000F1E1C3C3818100A12FC3D7B034101FAAD
:102F30007F316BFC08BF0A1280855B7F7F3A0D12E0
:102F400061614101C179482BF8080101180C137F18
:102F50007F3F2039158B08F88709132004273F3F4E
:042F60003F0000002E
:04000005080000ED02
:00000001FF
