:020000040800F2
:1000000000040020050100080D0100080F01000890
:10001000110100081301000815010008000000008C
:1000200000000000000000000000000017010008B0
:1000300019010008000000001B0100081D01000854
:100040001F0100081F0100081F0100081F01000810
:100050001F0100081F0100081F0100081F01000800
:100060001F0100081F0100081F0100081F010008F0
:100070001F0100081F0100081F0100081F010008E0
:100080001F0100081F0100081F0100081F010008D0
:100090001F0100081F0100081F0100081F010008C0
:1000A0001F0100081F0100081F0100081F010008B0
:1000B0001F0100081F0100081F0100081F010008A0
:1000C0001F0100081F0100081F0100081F01000890
:1000D0001F0100081F0100081F0100081F01000880
:1000E0001F0100081F0100081F010008DFF810D0E1
:1000F00000F01AF800480047F1070008AFF300804D
:10010000000400200648804706480047FEE7FEE757
:10011000FEE7FEE7FEE7FEE7FEE7FEE7FEE7FEE7B7
:10012000FD040008ED000008064C074D06E0E068FD
:1001300040F0010394E8070098471034AC42F6D32E
:10014000FFF7D8FF38080008480800082DE9F041FB
:10015000024600250026002000230024002791F8F5
:1001600003C00CF00F0591F803C00CF0100CBCF1AB
:10017000000F03D091F802C04CEA050591F800C0C9
:10018000BCF1000F31D0146800202BE04FF0010CBF
:100190000CFA00F3B1F800C00CEA03069E4220D12D
:1001A00083004FF00F0C0CFA03F7BC4305FA03FC75
:1001B0004CEA040491F803C0BCF1280F06D14FF0BB
:1001C000010C0CFA00FCC2F814C00AE091F803C05C
:1001D000BCF1480F05D14FF0010C0CFA00FCC2F83D
:1001E00010C0401C0828D1D31460B1F800C0BCF185
:1001F000FF0F34DD546800202EE000F1080C4FF0B2
:10020000010808FA0CF3B1F800C00CEA03069E429C
:1002100021D183004FF00F0C0CFA03F7BC4305FA11
:1002200003FC4CEA040491F803C0BCF1280F05D18B
:1002300000F1080C08FA0CF8C2F8148091F803C019
:10024000BCF1480F07D100F1080C4FF0010808FA83
:100250000CF8C2F81080401C0828CED35460BDE8CA
:10026000F08102460020D3680B400BB1012000E072
:1002700000207047416170470161704710B540210F
:100280000648FFF7EEFF20B940210448FFF7F4FFCE
:1002900003E040210148FFF7EDFF10BD00080140D9
:1002A00008B50121042000F0A5F80121082000F084
:1002B000A1F84020ADF8000010208DF803000320C5
:1002C0008DF8020069461548FFF740FF8020ADF821
:1002D000000010208DF8030003208DF8020069460D
:1002E0000E48FFF733FF0120ADF8000010208DF815
:1002F000030003208DF8020069460948FFF726FF36
:1003000040210648FFF7B6FF80210448FFF7B2FFFF
:1003100001210348FFF7AEFF08BD000000080140BF
:10032000000C014030B589B005460C46012104207F
:1003300000F060F80121022000F04CF8012108468D
:1003400000F058F818208DF82300C020ADF82000E8
:1003500003208DF8220008A91748FFF7F7FE0020B8
:10036000ADF81A00ADF81600ADF81850ADF814400D
:100370006020ADF804000020ADF80E000120ADF8BB
:10038000060005A90D4800F0ADF901A90B4800F0E1
:10039000F1F801A9094800F043F90821074800F0E5
:1003A00035F90821054800F08DF90121034800F0D6
:1003B000D5F809B030BD000000080140000400403D
:1003C00002490143024A1160704700000000FA052B
:1003D0000CED00E029B1064AD2690243044BDA6110
:1003E00004E0034AD2698243014BDA61704700009E
:1003F0000010024029B1064A92690243044B9A61F7
:1004000004E0034A92698243014B9A6170470000FD
:100410000010024010B500F001F810BD0CB500202E
:10042000019000903348006840F480303149086002
:1004300000BF3048006800F4003000900198401C74
:100440000190009818B90198B0F5A06FF1D1294832
:10045000006800F4003010B10120009001E000209D
:1004600000900098012843D12348006840F0100014
:10047000214908600846006820F00300086008462B
:10048000006840F0020008601A4840681949486056
:100490000846406848600846406840F4806048600C
:1004A0000846406820F47C1048600846406840F4E4
:1004B000E81048600846006840F08070086000BF9F
:1004C0000C48006800F000700028F9D00948406826
:1004D00020F00300074948600846406840F00200E9
:1004E000486000BF0348406800F00C000828F9D1BC
:1004F0000CBD0000001002400020024010B513485F
:10050000006840F001001149086008464068104941
:1005100008400E494860084600680E4908400B49EB
:1005200008600846006820F480200860084640689B
:1005300020F4FE0048604FF41F008860FFF76AFF58
:100540004FF000600449086010BD00000010024038
:100550000000FFF8FFFFF6FE08ED00E021B1028881
:1005600042F00102028004E002884FF6FE731A4056
:100570000280704770B5002400220023058C4FF6DE
:10058000FE7635400584028C8388048B4FF68F7588
:100590002C40B51E2C400D882C43751E2A400D8919
:1005A0002A434D882A43144DA8420BD0134DA8422C
:1005B00008D0134DA84205D0124DA84202D0124DCA
:1005C000A84213D14FF6F7752A404D892A434FF6BA
:1005D000FB752A408D882A434FF6FF652B404FF666
:1005E000FF552B408D892B43CD892B43838004837A
:1005F000CD888586028470BD002C01400034014006
:100600000040014000440140004801400A460021EA
:10061000018B4FF6F77319401143018370470000B7
:1006200070B5002400220023058C4FF6EF7635408C
:100630000584028C8388048B48F6FF752C404FF6A6
:10064000FF452C400D884FF6FF7606EA05252C4322
:100650004FF6DF752A400D8906EA05152A434D88B5
:1006600006EA05152A43154DA84202D0144DA842AA
:100670001DD14FF67F752A404D894FF6FF7606EA69
:1006800005152A434FF6BF752A408D8806EA0515E1
:100690002A434FF6FF352B404FF2FF752B408D89D3
:1006A00006EA85052B43CD8906EA85052B43838021
:1006B0000483CD880587028470BD0000002C0140B2
:1006C000003401400A460021018B4FF2FF731940AC
:1006D0004FF6FF7303EA02231943018370478186B3
:1006E00070470000002202881D4B98420ED01D4B1F
:1006F00098420BD0B0F1804F08D01B4B984205D0E8
:100700001A4B984202D01A4B984204D14FF68F737D
:100710001A404B881A43174B984207D0164B984201
:1007200004D04FF6FF431A40CB881A4302808B88CF
:1007300083850B8803850A4B98420BD0094B98425E
:1007400008D00E4B984205D00D4B984202D00D4B6D
:10075000984201D10B7A03860123838270470000FF
:10076000002C01400034014000040040000800401B
:10077000000C004000100040001400400040014008
:10078000004401400048014002E008C8121F08C1AF
:10079000002AFAD170477047002001E001C1121F02
:1007A000002AFBD17047014642F228324A434FF0FB
:1007B000E0235A6100229A611A46126942F001024E
:1007C0001A6100BF4FF0E022106900F001021AB177
:1007D00000F48032002AF5D04FF0E022126922F0B6
:1007E00001024FF0E0231A6100229A617047000075
:1007F0004FF4FA7401254FF4A060FFF7E1FDFFF715
:100800004FFD472144F61F60FFF78CFD10E01DB13E
:1008100004F1640084B202E0A4F1640084B22146D1
:100820000448FFF75CFFFFF729FDC820FFF7BBFF77
:10083000EDE7000000040040480800080000002028
:08084000000400009807000805
:04000005080000ED02
:00000001FF
