:020000040800F2
:1000000088060020050100080D0100080F01000806
:10001000110100081301000815010008000000008C
:1000200000000000000000000000000017010008B0
:1000300019010008000000001B0100081D01000854
:100040001F0100081F0100081F0100081F01000810
:100050001F0100081F0100081F0100081F01000800
:100060001F0100081F0100081F0100081F010008F0
:100070001F0100081F0100081F0100081F010008E0
:100080001F0100081F0100081F0100081F010008D0
:10009000150E00081F0100081F0100081F010008BD
:1000A0001F0100081F0100081F0100081F010008B0
:1000B0001F0100081F0100081F0100081F010008A0
:1000C0001F0100081F0100081F0100081F01000890
:1000D0001F010008190C0008A10C0008290D0008D8
:1000E0001F0100081F0100081F010008DFF810D0E1
:1000F00000F01AF800480047FD0F0008AFF3008039
:10010000880600200648804706480047FEE7FEE7CD
:10011000FEE7FEE7FEE7FEE7FEE7FEE7FEE7FEE7B7
:10012000B90B0008ED000008064C074D06E0E0683A
:1001300040F0010394E8070098471034AC42F6D32E
:10014000FFF7D8FF2810000848100008F0B585B068
:1001500007460D46002401200090002001908DF8F4
:1001600008008DF809008DF80A5000BF05E0395DE0
:100170000DF10B000155601C84B2AC42F7DB6946FF
:100180000C4800F0EDF9064601E0601C84B23146EF
:10019000084800F079FA18B940F6FF708442F4DBA1
:1001A00040F6FF70844202DB012005B0F0BD002064
:1001B000FBE700000064004010B50021837A0122B3
:1001C00002FA03F13D4A126842F001023B4B1A6009
:1001D0003A4A1C3212688A43384B1C331A60027B3D
:1001E000CAB9364A0C3212688A43344B0C331A604F
:1001F0004288C38842EA0343304A4032847A42F854
:1002000034300288838842EA03432C4A4032847A9D
:1002100002EBC4025360027B012A19D1274A0C3237
:1002200012680A43254B0C331A604288038842EA5D
:100230000343224A4032847A42F83430C2888388A9
:1002400042EA03431D4A4032847A02EBC4025360FF
:10025000C27A3AB9194A121D12688A43174B1B1DFC
:100260001A6006E0154A121D12680A43134B1B1D43
:100270001A60028932B9114A143212688A430F4B4C
:1002800014331A600289012A06D10C4A143212680A
:100290000A430A4B14331A60427B012A06D1074AEB
:1002A0001C3212680A43054B1C331A60034A126859
:1002B00022F00102014B1A6010BD000000660040F0
:1002C00010B501200C498872C872002008734FF4E1
:1002D0008040088044F22000488044F2400088803A
:1002E00044F26000C880002008810120487308465D
:1002F000FFF762FF10BD0000780200201AB14369C9
:100300000B43436102E043698B4343617047000044
:1003100010B5012202210F48FFF7F0FF012211461C
:100320000C48FFF7EBFF012291020A48FFF7E6FFB6
:100330004FF4407000F056FB14200749087002206B
:100340004870002088700120C870084600F012FB39
:1003500010BD0000006400400E00002030B50246D1
:1003600000200023146824F002041460146844F090
:100370000104146000E05B1C546804F001041CB923
:100380004FF6FF74A342F6D1546804F001040CB98F
:1003900000206CE08C79012C04D1146844F08004B6
:1003A000146003E0146824F080041460CC79012CFC
:1003B00004D1146844F04004146003E0146824F08D
:1003C000400414600C7A012C04D1146844F0200419
:1003D000146003E0146824F0200414604C7A012CAB
:1003E00004D1146844F01004146003E0146824F08D
:1003F000100414608C7A012C04D1146844F00804B1
:10040000146003E0146824F008041460CC7A012C12
:1004100004D1146844F00404146003E0146824F068
:10042000040414608C78A407CD7844EA05640D793F
:1004300044EA05444D7944EA05540D886D1E2C4369
:10044000D461146824F001041460002300E05B1CF4
:10045000546804F001041CB14FF6FF74A342F6D1B6
:10046000546804F001040CB1002000E0012030BD0C
:1004700010B500F5D87303EB01131B6803F00403F8
:100480001372137A53B900F5D87303EB01131B6889
:1004900040F2FF7404EA5353136009E000F5D87387
:1004A00003EB01131B686FF0604404EAD30353604D
:1004B00000F5D87303EB01131B6803F002035372BA
:1004C00000F5D87303EB01135B6803F00F0393721D
:1004D00000F5D87303EB01135B681B0AD37400F5B6
:1004E000D87303EB01139B68D37200F5D87303EB49
:1004F00001139B681C0A147300F5D87303EB0113F6
:100500009B681C0C547300F5D87303EB01139B68B4
:100510001B0E937300F5D87303EB0113DB68D373E1
:1005200000F5D87303EB0113DB681C0A147400F5A3
:10053000D87303EB0113DB681C0C547400F5D873FB
:1005400003EB0113DB681B0E937421B9C36843F0FE
:100550002003C36003E0036943F02003036110BD7F
:1005600010B502460020936803F08063B3F1806FFA
:1005700000D110E0936803F00063B3F1006F01D184
:10058000012008E0936803F08053B3F1805F01D14C
:10059000022000E00420042874D002F5C07303EBAD
:1005A00000131B6803F0010402F5C07303EB001392
:1005B0001C600B7A7BB94B7A0C8843EA445302F5F2
:1005C000C07404EB00142468234302F5C07404EBE8
:1005D0000014236010E00B7A4C6843EAC4034C7AA1
:1005E000234302F5C07404EB00142468234302F58E
:1005F000C07404EB001423608B7A03F00F038B723A
:1006000002F5C07303EB00135B6823F00F0402F5DF
:10061000C07303EB00135C6002F5C07303EB0013BF
:100620005B688C7A234302F5C07404EB00146360AA
:100630008B7B1C064B7B44EA03440B7B44EA03237D
:10064000CC7A234302F5C07404EB0014A3608B7CC6
:100650001C064B7C44EA03440B7C44EA0323CC7B1A
:10066000234302F5C07404EB0014E36002F5C07389
:1006700003EB00131B6843F0010402F5C07303EBA6
:1006800000131C6010BD000010B50246002321B10C
:10069000012907D002290FD109E090681D4C00EA1A
:1006A00004030BE090681C4C00EA040306E0906829
:1006B0001A4C00EA040301E0002300BF00BF184CFD
:1006C000181BA34216D007DC83B16FF0806018447A
:1006D00070B1022818D111E0B0F5007F10D0114C94
:1006E000204448B1B0F5003F0ED10BE002230DE0ED
:1006F00000230BE0002309E0002307E0012305E0CD
:10070000012303E0012301E0002300BF00BFD8B2B2
:1007100010BD0000030000040003000800000310E7
:10072000000100080001FFF72DE9F0410246002515
:100730000026002000230024002791F803C00CF0BD
:100740000F0591F803C00CF0100CBCF1000F03D0A2
:1007500091F802C04CEA050591F800C0BCF1000F09
:1007600031D0146800202BE04FF0010C0CFA00F39C
:10077000B1F800C00CEA03069E4220D183004FF07E
:100780000F0C0CFA03F7BC4305FA03FC4CEA040413
:1007900091F803C0BCF1280F06D14FF0010C0CFA00
:1007A00000FCC2F814C00AE091F803C0BCF1480F85
:1007B00005D14FF0010C0CFA00FCC2F810C0401C2F
:1007C0000828D1D31460B1F800C0BCF1FF0F34DDAC
:1007D000546800202EE000F1080C4FF0010808FAE0
:1007E0000CF3B1F800C00CEA03069E4221D183004D
:1007F0004FF00F0C0CFA03F7BC4305FA03FC4CEA6C
:10080000040491F803C0BCF1280F05D100F1080CD5
:1008100008FA0CF8C2F8148091F803C0BCF1480F34
:1008200007D100F1080C4FF0010808FA0CF8C2F8E3
:100830001080401C0828CED35460BDE8F081000031
:10084000F0B50A46002300240021002500F00046F0
:10085000B6F1004F02D11D4EF16901E01B4E7168E7
:10086000C0F3034583B200F44016B6F5401F08D12B
:1008700021F07061154E766826F07066134F7E6029
:1008800012E000F48016B6F5801F06D1032606FAA2
:1008900005F4A14341F0706106E0460D360103FA0C
:1008A00006F6B14341F0706122B1460D360103FAFC
:1008B00006F6314300F00046B6F1004F02D1034E78
:1008C000F16101E0014E7160F0BD000000000140E7
:1008D0000246002093680B400BB1012000E000208D
:1008E00070474161704701617047F8B506460C4694
:1008F00015460121304600F08FF8ADF80040482041
:100900008DF8030003208DF8020069462846FFF7A2
:100910000BFFF8BD10B5084A4021042000F010F884
:10092000054A8021042000F00BF8044A0121082028
:1009300000F006F810BD000000080140000C014066
:10094000F8B506460C4615460121304600F064F81D
:10095000ADF8004010208DF8030003208DF8020050
:1009600069462846FFF7E0FE21462846FFF7B9FF13
:10097000F8BD000070B5002100230F22C47804B335
:10098000154C246804F4E064C4F5E064210AC1F164
:100990000403CA40447804FA03F1847814402143E4
:1009A00009010E4C0678A155047804F01F050124B6
:1009B000AC4005786D11AD0005F1E025C5F80041AA
:1009C00009E0047804F01F050124AC40044D0678CA
:1009D000761145F8264070BD0CED00E000E400E023
:1009E00080E100E002490143024A116070470000C3
:1009F0000000FA050CED00E029B1064AD269024375
:100A0000044BDA6104E0034AD2698243014BDA61A4
:100A1000704700000010024029B1064A9269024363
:100A2000044B9A6104E0034A92698243014B9A6144
:100A3000704700000010024070B50446002514B154
:100A40000120214908702048007838B308211F4848
:100A5000FFF73EFF48B110211C48FFF739FF20B1D6
:100A600020211A48FFF734FFC0B90A2000F08EFA9F
:100A700000201549087008211448FFF729FF00B924
:100A8000012510211148FFF723FF00B9022520217D
:100A90000E48FFF71DFFA8B9032513E008210B48F6
:100AA000FFF716FF01280DD110210848FFF710FFAE
:100AB000012807D120210548FFF70AFF012801D1AD
:100AC00001490870284670BD12000020000801404E
:100AD00010B500F001F810BD0CB500200190009099
:100AE0003348006840F480303149086000BF304826
:100AF000006800F4003000900198401C01900098BC
:100B000018B90198B0F5A06FF1D12948006800F438
:100B1000003010B10120009001E00020009000980A
:100B2000012843D12348006840F0100021490860A3
:100B30000846006820F0030008600846006840F09E
:100B4000020008601A484068194948600846406831
:100B500048600846406840F4806048600846406845
:100B600020F47C1048600846406840F4E810486073
:100B70000846006840F08070086000BF0C480068BC
:100B800000F000700028F9D00948406820F0030008
:100B9000074948600846406840F00200486000BFCE
:100BA0000348406800F00C000828F9D10CBD000093
:100BB000001002400020024010B51348006840F0C9
:100BC00001001149086008464068104908400E4974
:100BD0004860084600680E4908400B49086008460E
:100BE000006820F4802008600846406820F4FE0079
:100BF00048604FF41F008860FFF76AFF4FF0006005
:100C00000449086010BD0000001002400000FFF819
:100C1000FFFFF6FE08ED00E010B540F225511D483B
:100C200000F0C8F810B31B4800F0EEF8C4B21A4840
:100C3000008800F40040C8B91748008800F48040DC
:100C400060B10A2C03D000201349088020E012482C
:100C5000008840F400401049088019E00D2C06D1AE
:100C60000D48008840F480400B49088010E00A4895
:100C70000088C0F30D0009490C5407480088401C47
:100C80000549088008460088C72801DD0020088043
:100C900010BD0000003801400400002014000020B6
:100CA00010B540F225511D4800F084F810B31B48E0
:100CB00000F0AAF8C4B21A48008800F40040C8B98D
:100CC0001748008800F4804060B10A2C03D000204F
:100CD0001349088020E01248008840F40040104981
:100CE000088019E00D2C06D10D48008840F48040A2
:100CF0000B49088010E00A480088C0F30D0009493C
:100D00000C5407480088401C0549088008460088A4
:100D1000C72801DD0020088010BD0000004400400D
:100D200006000020DC00002010B540F225511D48CF
:100D300000F040F810B31B4800F066F8C4B21A483F
:100D4000008800F40040C8B91748008800F48040CB
:100D500060B10A2C03D000201349088020E012481B
:100D6000008840F400401049088019E00D2C06D19D
:100D70000D48008840F480400B49088010E00B4883
:100D80000088C0F30D000A490C5407480088401C35
:100D90000549088008460088C72801DD0020088032
:100DA00010BD0000004800400800002006000020A0
:100DB000A401002070B50246002400230025002075
:100DC00040F66A16B14200D100BFC1F3421501F0EE
:100DD0001F03012606FA03F3012D02D19689334041
:100DE00006E0022D02D1168A334001E0968A334094
:100DF0000C12012606FA04F41688344013B10CB123
:100E0000012000E0002070BD01468888C0F3080082
:100E10007047000010B586B00024002001900290B9
:100E20008DF80C008DF80D008DF8170000BF04E060
:100E300000210DF10F000155641C082CF8DB002483
:100E400001AA00210448FFF713FB9DF80F0000F0F2
:100E500005F806B010BD0000006400401CB5044653
:100E6000002000900190012C0BD140211748FFF782
:100E70003AFD4FF4967000F089F840211348FFF7CF
:100E800030FD032C0BD180211048FFF72CFD4FF4CF
:100E9000967000F07BF880210C48FFF722FD022CB1
:100EA0000BD101210A48FFF71EFD4FF4967000F0A8
:100EB0006DF801210648FFF714FD34B1E0B28DF85A
:100EC000000001216846FFF741F91CBD0008014000
:100ED000000C014002E008C8121F08C1002AFAD124
:100EE00070477047002001E001C1121F002AFBD1AA
:100EF000704700002DE9F04104460D4616461F4696
:100F0000DDF8188001210920FFF786FD0121480640
:100F1000FFF772FD01214FF4EA10FFF791FC4FF447
:100F20008070164908804820C870032088701448D3
:100F3000FFF7FAFB4FF40070104908801820C870C2
:100F4000032088700E48FFF7EFFB00200D498871E1
:100F5000C871087248728872C872084680F80280A8
:100F6000C4700671457107800748FFF7F7F9FFF76E
:100F7000A7F9FFF7CDF9BDE8F08100000A000020D5
:100F8000000C01406C02002000640040014642F267
:100F900028324A434FF0E0235A6100229A611A46F0
:100FA000126942F001021A6100BF4FF0E02210699D
:100FB00000F001021AB100F48032002AF5D04FF09F
:100FC000E022126922F001024FF0E0231A610022B0
:100FD0009A61704710B5084A08210420FFF785FC84
:100FE000054A10210420FFF780FC034A2021042039
:100FF000FFF77BFC10BD00000008014008B500248D
:10100000FFF788FCFFF7E6FF0020042308220721F2
:101010000090FFF76FFF06E00020FFF70DFD04468C
:101020002046FFF71BFFF7E74810000800000020EC
:1010300014000000D40E00085C100008140000200A
:1010400074060000E40E000800000000000000002C
:0C10500000000000000000000000010093
:04000005080000ED02
:00000001FF
